:1000000000000120D90500001D0600001F060000A9
:100010002106000023060000250600000000000065
:1000200000000000000000000000000027060000A3
:1000300029060000000000002B0600002D0600002D
:100040002F0600002F0600002F0600002F060000DC
:100050002F0600002F0600002F0600002F060000CC
:100060002F0600002F0600002F0600002F060000BC
:100070002F0600002F0600002F0600002F060000AC
:100080002F0600002F0600002F0600002F0600009C
:100090002F0600002F0600002F0600002F0600008C
:1000A0002F0600002F0600002F0600002F0600007C
:1000B0002F0600002F0600000000000000000000D6
:1000C0002F0600002F0600002F0600002F0600005C
:1000D0002F0600002F0600002F0600000000000081
:1000E0000000000000000000000000000000000010
:1000F0000000000000000000000000000000000000
:1001000000000000000000000000000000000000EF
:1001100000000000000000000000000000000000DF
:1001200000000000000000000000000000000000CF
:1001300000000000000000000000000000000000BF
:1001400000000000000000000000000000000000AF
:10015000000000000000000000000000000000009F
:10016000000000000000000000000000000000008F
:10017000000000000000000000000000000000007F
:10018000000000000000000000000000000000006F
:10019000000000000000000000000000000000005F
:1001A000000000000000000000000000000000004F
:1001B000000000000000000000000000000000003F
:1001C000000000000000000000000000000000002F
:1001D000000000000000000000000000000000001F
:1001E000000000000000000000000000000000000F
:1001F00000000000000000000000000000000000FF
:100200008C4B1B68B3F1FF3F04BF8B4B1B78062B55
:1002100005D18A4B1B68C3F30423894A1360864BBC
:100220001B78062B49D0834B1B68B3F1FF3F04BFFB
:10023000814B1B78062B05D1824B1B68C3F34233DD
:10024000814A13607C4B1B78062B40D0794B1B688E
:10025000B3F1FF3F04BF784B1B78062B08D14FF05A
:1002600080430022C3F80C21C3F81021C3F83825BD
:10027000714B1B78062B36D06E4B1A68B2F1FF3FDC
:1002800051D0724B1B68062A76D06A4B1B68062B2E
:1002900055D0684B1B68062B00F0BF806C4AD2F823
:1002A000883043F47003C2F88830BFF34F8FBFF338
:1002B0006F8F684B684A1A607047684B1B68C3F3BE
:1002C0000313032BAFD1664B664A1A60ABE7634B4F
:1002D0001B68C3F30313032BB8D1634AD36823F01D
:1002E0008073D360B2E75D4B1B68C3F30313032B2A
:1002F00006D15E4B03221A604F4B1B78062BBBD1F5
:10030000564B1B68C3F30313032BB5D1584B05227F
:100310001A60783301221A60703B00221A60043B95
:100320003F221A60A8E74D4B1B68C3F30313424AF0
:100330001278062A20D0404B1B78062B0AD14D4B51
:100340001B6803F04F034C4A13603A4B1B68B3F130
:10035000FF3F01D1384B1B78062B9AD14FF08043D9
:10036000D3F8003413F0010F93D04FF080436FF0B7
:100370000102C3F800248CE7033B012B46D94FF060
:100380008052D2F804143D4BC3F82015D2F808145B
:10039000C3F82415D2F80C14C3F82815D2F8101499
:1003A000C3F82C15D2F81414C3F83015D2F8181469
:1003B000C3F83415D2F81C14C3F84015D2F8201431
:1003C000C3F84415D2F82414C3F84815D2F82814F9
:1003D000C3F84C15D2F82C14C3F85015D2F83014C9
:1003E000C3F85415D2F83414C3F86015D2F8381491
:1003F000C3F86415D2F83C14C3F86815D2F8401459
:10040000C3F86C15D2F84424C3F87025094B1B6857
:10041000B3F1FF3F7FF43BAF8DE70C4B1B68033B11
:10042000022B7FF63BAF164A136843F480631360D8
:1004300034E700BF30010010E00F00F0240300108B
:1004400040350140440200103C05004034010010DA
:1004500000ED00E0000000200090D003E80F00F065
:1004600074C007400DF0ADBAF0ED00E0A00500400B
:100470001056004058020010E40E004000C000403A
:100480003C170040344935480A1A02D007229143EC
:100490008D46334933480A1A06D00722914381F327
:1004A0000988022282F314882F483049304A00F02C
:1004B00042F830483049314A00F03DF8304831497F
:1004C000314A00F038F831483149324A00F033F807
:1004D00031483249324A00F02EF832483249334A24
:1004E00000F029F832483349334A00F024F8334801
:1004F0003349002200F02AF832483349002200F044
:1005000025F832483249091A082902DB0022026024
:1005100041601F481F49884205D00268043003B477
:10052000904703BCF7E700208646EC4600200021F8
:10053000284A9047FEE7884207D0521A05D0037830
:1005400001300B700131013AF9D17047884202D075
:1005500002700130FAE770470000012000FC002023
:100560000000012000000120B40E00000000002067
:10057000040000203406000034060000580E00007D
:10058000B40E00000000002000000020580E000003
:10059000580E0000580E0000580E0000580E0000C3
:1005A000580E0000580E0000580E0000B40E000057
:1005B000B80E0000900400209004002004000020E9
:1005C000900400209004002090040020900400205B
:1005D000900800201D08000000F02AB80A484FF0DB
:1005E0000701884385460948804709480949016051
:1005F0000948016841F470010160BFF34F8FBFF3F8
:100600006F8FFFF73FBF00000000012001020000D4
:1006100008ED00E00000000088ED00E0FEE7FEE7E6
:10062000FEE7FEE7FEE7FEE7FEE7FEE7FEE7FEE7A2
:04063000FFF7D4BF3D
:100634000369C1688B4204D882681A44013A501A8B
:100644007047013B581A70472DE9F8430546884620
:100654001646C468D0F80890A9EB0407974207D956
:100664004068204400F020F93444EC60BDE8F8838D
:1006740040683A46204400F017F93444A4EB0904D6
:10068400224608EB0701686800F00EF9EC60EDE71C
:100694002DE9F843064688461746C5684FF0000919
:1006A4003469A54224BFB268A418013C621BB36834
:1006B4005C1BBC4228BF3C46944228BF1446706869
:1006C40022464146284400F0EFF8A144A0442544C2
:1006D400B368AB4208BF0025F5603F1BE0D1484634
:1006E400BDE8F88310B5114C022323616361104AFD
:1006F400A261104BE3614FF4806323620023A36281
:100704006362E362A2640C4AE26410222265A36578
:100714006365E3650949E01D00F0EFF808492046E8
:1007240000F0EBF82023A37110BD00BF04000020EB
:10073400580E00008C0000207C000020640E000095
:10074400680E0000F8B50F461646194A431C03EB21
:10075400430302EBC30400EB400002EBC000C56A94
:10076400012D11D025B1022D1BD000252846F8BD3E
:100774002046FFF75DFFB042F8D3324639462046A3
:10078400FFF762FF3546F1E72046FFF751FF354694
:10079400864228BF05462A4639462046FFF754FFBD
:1007A400E4E732462046FFF773FF0546DEE700BF65
:1007B40004000020F8B505460E461746094B1B7881
:1007C4006BB1EFF311844FF0200181F311883A46A5
:1007D40031462846FFF7B6FF84F31188F8BDFFF7CA
:1007E40081FFEEE7040000200FB410B5A2B024ABE3
:1007F40053F8042B0193802102A800F047F8044623
:10080400024602A90020FFF7D5FF204622B0BDE82A
:10081400104004B07047000038B500F00DF8002413
:10082400044D21462846FFF7DFFF0134642CF8D13C
:10083400FEE700BF700E00000022D2F8003543F03E
:100844000403C2F80035D2F8243543F0EB7343F4C3
:10085400F033C2F82435704738B504460846A26818
:1008640042B1236861685D1C8D4208BF00208B4241
:1008740008D2D054E3682BB121686268914201D256
:100884002146984723680133236038BD10B584B0EE
:10089400144602900022039201911A4621466846AA
:1008A40000F04EF804B010BD844640EA010313F092
:1008B400030F18D18446202A0BD32DE9F007B1E8A1
:1008C400F807A0E8F807A2F12002202AF7D2BDE831
:1008D400F007042A07D351F8043B40F8043BA2F183
:1008E4000402042AF7D2002A05D011F8013B00F8CB
:1008F400013B013AF9D160467047024610F0030FFC
:1009040016D111F0030F13D12DE9F0004FF0013788
:100914004FF0803351F8044BA4EB070525EA040596
:100924001D4002D142F8044BF4E7A1F10401F0BCEC
:1009340011F8013B02F8013B002BF9D1704700008C
:100944002DE9F04788B006460C4603920023036065
:10095400DFF848828F4F5DE2002209E0202804D0AE
:10096400232818D142F0800201E042F040022546DB
:100974002C4614F8010B272807D0EFD92B2807D0D1
:100984005E2808D142F48052F1E742F40042EEE7D7
:1009940042F02002EBE774280BD07A2809D06828AB
:1009A40009D12078682800F08380AC1C42F004024E
:1009B40001E02078AC1C78287FD8DFE810F04302EF
:1009C4007E007E007E007E007E007E007E007E0033
:1009D4007E007E007E007E007E007E007E007E0023
:1009E4007E007E007E007E007E007E007E007E0013
:1009F4007E007E007E007E007E007E007E007E0003
:100A04007E007E007E007E008B007E007E007E00E5
:100A14007E007E007E007E007E007E007E007E00E2
:100A24007E007E007E007E007E007E007E007E00D2
:100A34007E007E007E007E007E007E007E007E00C2
:100A44007E007E007E007E007E007E007E007E00B2
:100A54007E007E007E007E007E007E007E007E00A2
:100A64007E007E007E007E007E007E007E00CF0041
:100A74007E007E007E007E007E007E007E007E0082
:100A84007E007E009000E5007E007E007E007E00F9
:100A9400E5007E007E007E007E009800DC00B90048
:100AA4007E007E00A9007E00F1007E007E00D10061
:100AB40042F00802607802347DE7374B1D68002D50
:100AC40000F0A88103AB01934FF0FF33009331464C
:100AD400A8479FE125213046FFF7BEFE9AE1039B1C
:100AE4001A1D039219783046FFF7B6FE92E112F010
:100AF400080F06D03268039B191D03911B681A70F6
:100B040088E1039B1A1D03921B6832681A6081E115
:100B1400039B1A1D03921D682978002900F07A812D
:100B24003046FFF799FE15F8011F0029F8D171E14D
:100B3400039B191D03911B6802F0800100290CBF5F
:100B44004FF000094FF0230942F48072002B40F06B
:100B5400EA8030238DF8143001250BE142F4005271
:100B640012F0800F78D043F2780943F258037828C2
:100B740018BF994616E002F08003002B0CBF4FF01B
:100B840000094FF030090DE042F480424FF00009B3
:100B940008E000BFA40E00008C040020940E0000A6
:100BA4004FF0000912F4804F67D0039B191D039185
:100BB4001B6812F0040F52D01BB2002B53DA5B42B5
:100BC4004FF02D095838202800F2198101A151F85D
:100BD40020F000BF510B0000030E0000030E0000C4
:100BE400030E0000030E0000030E0000030E0000BD
:100BF400030E0000030E0000030E0000030E0000AD
:100C0400030E0000930D0000030E0000030E00000D
:100C1400030E0000030E0000930D0000030E0000FD
:100C2400030E0000030E0000030E0000030E00007C
:100C3400530D0000510B0000030E0000030E0000D2
:100C4400030E0000030E0000930D0000030E0000CD
:100C5400030E0000510B00004FF00009A2E712F050
:100C6400080FAAD0DBB212F0200F40F0EE8012F091
:100C7400400F0AD04FF02009A4E7039B191D0391EC
:100C84001B6812F0040F49D09BB25838202800F298
:100C9400A98001A151F820F0510B0000E90D0000DA
:100CA400E90D0000E90D0000E90D0000E90D000068
:100CB400E90D0000E90D0000E90D0000E90D000058
:100CC400E90D0000E90D0000930D0000E90D00009E
:100CD400E90D0000E90D0000E90D0000930D00008E
:100CE400E90D0000E90D0000E90D0000E90D000028
:100CF400E90D0000530D0000510B0000E90D000048
:100D0400E90D0000E90D0000E90D0000930D00005D
:100D1400E90D0000E90D0000510B000012F0080F6E
:100D240018BFDBB2B1E705A9002502F4005208E0C0
:100D340003F00F0018F8000001F8010B01351B093E
:100D440018D0002AF4D003F00F00385CF4E723B97C
:100D540030238DF8143001250CE01A4605A900252E
:100D640003F00703303301F8013B0135D208134681
:100D7400002AF5D1B9F1FF0F36D8B9F1000F38D1F7
:100D8400002D47DD0DF1140A013D55443AE023B925
:100D940030238DF814300125ECE7002502F4004ED1
:100DA4004FF02C0A2A4A10E008A901EB050CA2FB1B
:100DB4000310C00800EB8001A3EB410130310CF8B3
:100DC4000C1C0135092BD5D90346BEF1000FEBD01D
:100DD40005F003010329E7D108A9294401F80CAC63
:100DE4000135E1E70025C5E74FEA19213046FFF751
:100DF40033FD09F07F013046FFF72EFDC0E70025E3
:100E0400F7E74D46A94619F801193046FFF724FDC6
:100E14005545F6D1254615F8011B39B125293FF46E
:100E24009BAD3046FFF718FD2C46F3E7B3682BB1B2
:100E3400326871688A423CBF00219954306808B016
:100E4400BDE8F0874FF0FF30F9E74FF02B09B9E622
:040E5400CDCCCCCC69
:100E58005465726D696E616C000000005254540054
:100E6800534547474552000048656C6C6F205061F8
:100E7800726B65722C204920616D20796F75722024
:100E8800666174686572202564210A003031323346
:100E980034353637383961626364656630313233E8
:0C0EA80034353637383941424344454662
:040EB4000090D003D7
:04000003000005D91B
:00000001FF
