:1000000000000120D90500001D0600001F060000A9
:100010002106000023060000250600000000000065
:1000200000000000000000000000000027060000A3
:1000300029060000000000002B0600002D0600002D
:100040002F0600002F0600002F0600002F060000DC
:100050002F0600002F0600002F0600002F060000CC
:100060002F0600002F0600002F0600002F060000BC
:100070002F0600002F0600002F0600002F060000AC
:100080002F0600002F0600002F0600002F0600009C
:100090002F0600002F0600002F0600002F0600008C
:1000A0002F0600002F0600002F0600002F0600007C
:1000B0002F0600002F0600000000000000000000D6
:1000C0002F0600002F0600002F0600002F0600005C
:1000D0002F0600002F0600002F0600000000000081
:1000E0000000000000000000000000000000000010
:1000F0000000000000000000000000000000000000
:1001000000000000000000000000000000000000EF
:1001100000000000000000000000000000000000DF
:1001200000000000000000000000000000000000CF
:1001300000000000000000000000000000000000BF
:1001400000000000000000000000000000000000AF
:10015000000000000000000000000000000000009F
:10016000000000000000000000000000000000008F
:10017000000000000000000000000000000000007F
:10018000000000000000000000000000000000006F
:10019000000000000000000000000000000000005F
:1001A000000000000000000000000000000000004F
:1001B000000000000000000000000000000000003F
:1001C000000000000000000000000000000000002F
:1001D000000000000000000000000000000000001F
:1001E000000000000000000000000000000000000F
:1001F00000000000000000000000000000000000FF
:100200008C4B1B68B3F1FF3F04BF8B4B1B78062B55
:1002100005D18A4B1B68C3F30423894A1360864BBC
:100220001B78062B49D0834B1B68B3F1FF3F04BFFB
:10023000814B1B78062B05D1824B1B68C3F34233DD
:10024000814A13607C4B1B78062B40D0794B1B688E
:10025000B3F1FF3F04BF784B1B78062B08D14FF05A
:1002600080430022C3F80C21C3F81021C3F83825BD
:10027000714B1B78062B36D06E4B1A68B2F1FF3FDC
:1002800051D0724B1B68062A76D06A4B1B68062B2E
:1002900055D0684B1B68062B00F0BF806C4AD2F823
:1002A000883043F47003C2F88830BFF34F8FBFF338
:1002B0006F8F684B684A1A607047684B1B68C3F3BE
:1002C0000313032BAFD1664B664A1A60ABE7634B4F
:1002D0001B68C3F30313032BB8D1634AD36823F01D
:1002E0008073D360B2E75D4B1B68C3F30313032B2A
:1002F00006D15E4B03221A604F4B1B78062BBBD1F5
:10030000564B1B68C3F30313032BB5D1584B05227F
:100310001A60783301221A60703B00221A60043B95
:100320003F221A60A8E74D4B1B68C3F30313424AF0
:100330001278062A20D0404B1B78062B0AD14D4B51
:100340001B6803F04F034C4A13603A4B1B68B3F130
:10035000FF3F01D1384B1B78062B9AD14FF08043D9
:10036000D3F8003413F0010F93D04FF080436FF0B7
:100370000102C3F800248CE7033B012B46D94FF060
:100380008052D2F804143D4BC3F82015D2F808145B
:10039000C3F82415D2F80C14C3F82815D2F8101499
:1003A000C3F82C15D2F81414C3F83015D2F8181469
:1003B000C3F83415D2F81C14C3F84015D2F8201431
:1003C000C3F84415D2F82414C3F84815D2F82814F9
:1003D000C3F84C15D2F82C14C3F85015D2F83014C9
:1003E000C3F85415D2F83414C3F86015D2F8381491
:1003F000C3F86415D2F83C14C3F86815D2F8401459
:10040000C3F86C15D2F84424C3F87025094B1B6857
:10041000B3F1FF3F7FF43BAF8DE70C4B1B68033B11
:10042000022B7FF63BAF164A136843F480631360D8
:1004300034E700BF30010010E00F00F0240300108B
:1004400040350140440200103C05004034010010DA
:1004500000ED00E0000000200090D003E80F00F065
:1004600074C007400DF0ADBAF0ED00E0A00500400B
:100470001056004058020010E40E004000C000403A
:100480003C170040344935480A1A02D007229143EC
:100490008D46334933480A1A06D00722914381F327
:1004A0000988022282F314882F483049304A00F02C
:1004B00042F830483049314A00F03DF8304831497F
:1004C000314A00F038F831483149324A00F033F807
:1004D00031483249324A00F02EF832483249334A24
:1004E00000F029F832483349334A00F024F8334801
:1004F0003349002200F02AF832483349002200F044
:1005000025F832483249091A082902DB0022026024
:1005100041601F481F49884205D00268043003B477
:10052000904703BCF7E700208646EC4600200021F8
:10053000284A9047FEE7884207D0521A05D0037830
:1005400001300B700131013AF9D17047884202D075
:1005500002700130FAE770470000012000FC002023
:100560000000012000000120E00700000000002042
:10057000080000203406000034060000D407000004
:10058000E00700000000002000000020D407000069
:10059000D4070000D4070000D4070000D4070000EF
:1005A000D4070000D4070000D4070000E0070000D3
:1005B000E8070000080000200800002008000020D4
:1005C000080000200800002008000020080000208B
:1005D000080400203506000000F02AB80A484FF051
:1005E0000701884385460948804709480949016051
:1005F0000948016841F470010160BFF34F8FBFF3F8
:100600006F8FFFF73FBF00000000012001020000D4
:1006100008ED00E00000000088ED00E0FEE7FEE7E6
:10062000FEE7FEE7FEE7FEE7FEE7FEE7FEE7FEE7A2
:04063000FFF7D4BF3D
:1006340010B582B000F02AF800F076F8114800F006
:1006440057F8114C01E000F067F80194019B002B6E
:1006540009DD00F071F800F084F8019B013B01937F
:10066400019B002BF5DC0194019B002BEBDD00F0DA
:100674006AF800F06FF8019B013B0193019B002B8A
:10068400F5DCE0E7D407000040420F000F4B1B6885
:100694000022C3F800250421C3F80015C3F8002282
:1006A400C3F80423C3F808230621C3F80C15082152
:1006B400C3F814150721C3F810150521C3F808154C
:1006C400C3F86C25024AC3F82425704704000020AF
:1006D40000502700054B1A6801239360C2F81C05DB
:1006E400D2F81C31002BFBD0704700BF040000205F
:1006F40038B5044600F03CF8002807DD013C251815
:1007040014F8010FFFF7E6FFAC42F9D1014B1B6867
:10071400DB6838BD04000020024B1B681A68D3F85C
:1007240018057047040000204FF0A0430122C3F8CD
:100734004427C3F84C2770474FF0A0434FF40032CE
:10074400C3F8082570474FF0A0434FF40032C3F8B4
:100754000C2570474FF0A0434FF40022C3F808253E
:1007640070474FF0A0434FF40022C3F80C257047A4
:1007740000F1010110F0030F11D010F8012B002A31
:1007840023D010F0030F0AD010F8012B002A1CD03C
:1007940010F0030F03D010F8012B002A15D02DE917
:1007A40070004FF001324FF0803350F8044BA4EB4B
:1007B400020525EA04051D4000D1F6E7A0F1040076
:1007C40070BC10F8012B002AFBD1A0EB010070478C
:0C07D40074657374696E670D0A00000004
:0807E0000090D003002000404E
:04000003000005D91B
:00000001FF
